{
  "contractName": "StudentCert",
  "abi": [
    {
      "constant": true,
      "inputs": [
        {
          "name": "",
          "type": "uint256"
        }
      ],
      "name": "exist",
      "outputs": [
        {
          "name": "",
          "type": "bool"
        }
      ],
      "payable": false,
      "stateMutability": "view",
      "type": "function"
    },
    {
      "constant": true,
      "inputs": [
        {
          "name": "",
          "type": "uint256"
        }
      ],
      "name": "Student",
      "outputs": [
        {
          "name": "name",
          "type": "string"
        },
        {
          "name": "course",
          "type": "string"
        },
        {
          "name": "matric_num",
          "type": "string"
        },
        {
          "name": "dob",
          "type": "string"
        },
        {
          "name": "graddate",
          "type": "string"
        },
        {
          "name": "gpa",
          "type": "int256"
        }
      ],
      "payable": false,
      "stateMutability": "view",
      "type": "function"
    },
    {
      "constant": true,
      "inputs": [],
      "name": "studentsCount",
      "outputs": [
        {
          "name": "",
          "type": "uint256"
        }
      ],
      "payable": false,
      "stateMutability": "view",
      "type": "function"
    },
    {
      "constant": true,
      "inputs": [
        {
          "name": "",
          "type": "address"
        }
      ],
      "name": "UniversityAdmin",
      "outputs": [
        {
          "name": "",
          "type": "bool"
        }
      ],
      "payable": false,
      "stateMutability": "view",
      "type": "function"
    },
    {
      "constant": true,
      "inputs": [],
      "name": "ic",
      "outputs": [
        {
          "name": "",
          "type": "uint256"
        }
      ],
      "payable": false,
      "stateMutability": "view",
      "type": "function"
    },
    {
      "inputs": [],
      "payable": false,
      "stateMutability": "nonpayable",
      "type": "constructor"
    },
    {
      "anonymous": false,
      "inputs": [
        {
          "indexed": false,
          "name": "ic",
          "type": "uint256"
        },
        {
          "indexed": false,
          "name": "name",
          "type": "string"
        },
        {
          "indexed": false,
          "name": "course",
          "type": "string"
        },
        {
          "indexed": false,
          "name": "matric_num",
          "type": "string"
        },
        {
          "indexed": false,
          "name": "dob",
          "type": "string"
        },
        {
          "indexed": false,
          "name": "gpa",
          "type": "int256"
        },
        {
          "indexed": false,
          "name": "graddate",
          "type": "string"
        }
      ],
      "name": "logAddedStudent",
      "type": "event"
    },
    {
      "constant": false,
      "inputs": [
        {
          "name": "_ic",
          "type": "uint256"
        }
      ],
      "name": "setIC",
      "outputs": [],
      "payable": false,
      "stateMutability": "nonpayable",
      "type": "function"
    },
    {
      "constant": false,
      "inputs": [
        {
          "name": "_ic",
          "type": "uint256"
        },
        {
          "name": "_name",
          "type": "string"
        },
        {
          "name": "_course",
          "type": "string"
        },
        {
          "name": "_matric_num",
          "type": "string"
        },
        {
          "name": "_dob",
          "type": "string"
        },
        {
          "name": "_gpa",
          "type": "int256"
        },
        {
          "name": "_graddate",
          "type": "string"
        }
      ],
      "name": "addStudent",
      "outputs": [],
      "payable": false,
      "stateMutability": "nonpayable",
      "type": "function"
    },
    {
      "constant": false,
      "inputs": [
        {
          "name": "_ic",
          "type": "uint256"
        }
      ],
      "name": "getDetails",
      "outputs": [
        {
          "name": "",
          "type": "string"
        },
        {
          "name": "",
          "type": "string"
        },
        {
          "name": "",
          "type": "string"
        },
        {
          "name": "",
          "type": "string"
        },
        {
          "name": "",
          "type": "int256"
        }
      ],
      "payable": false,
      "stateMutability": "nonpayable",
      "type": "function"
    },
    {
      "constant": false,
      "inputs": [
        {
          "name": "_address",
          "type": "address"
        }
      ],
      "name": "addUniAddress",
      "outputs": [],
      "payable": false,
      "stateMutability": "nonpayable",
      "type": "function"
    }
  ],
  "bytecode": "0x608060405234801561001057600080fd5b5033600560006101000a81548173ffffffffffffffffffffffffffffffffffffffff021916908373ffffffffffffffffffffffffffffffffffffffff16021790555061148b806100616000396000f300608060405260043610610099576000357c0100000000000000000000000000000000000000000000000000000000900463ffffffff1680634ebbc92a1461009e57806365bbf54f146100e357806368433a3a1461034057806396c3248d1461036b578063985bc337146103c6578063a8d9da12146103f3578063af841c111461041e578063b93a89f714610461578063bc54382f14610652575b600080fd5b3480156100aa57600080fd5b506100c9600480360381019080803590602001909291905050506107e7565b604051808215151515815260200191505060405180910390f35b3480156100ef57600080fd5b5061010e60048036038101908080359060200190929190505050610807565b60405180806020018060200180602001806020018060200187815260200186810386528c818151815260200191508051906020019080838360005b83811015610164578082015181840152602081019050610149565b50505050905090810190601f1680156101915780820380516001836020036101000a031916815260200191505b5086810385528b818151815260200191508051906020019080838360005b838110156101ca5780820151818401526020810190506101af565b50505050905090810190601f1680156101f75780820380516001836020036101000a031916815260200191505b5086810384528a818151815260200191508051906020019080838360005b83811015610230578082015181840152602081019050610215565b50505050905090810190601f16801561025d5780820380516001836020036101000a031916815260200191505b50868103835289818151815260200191508051906020019080838360005b8381101561029657808201518184015260208101905061027b565b50505050905090810190601f1680156102c35780820380516001836020036101000a031916815260200191505b50868103825288818151815260200191508051906020019080838360005b838110156102fc5780820151818401526020810190506102e1565b50505050905090810190601f1680156103295780820380516001836020036101000a031916815260200191505b509b50505050505050505050505060405180910390f35b34801561034c57600080fd5b50610355610b3b565b6040518082815260200191505060405180910390f35b34801561037757600080fd5b506103ac600480360381019080803573ffffffffffffffffffffffffffffffffffffffff169060200190929190505050610b41565b604051808215151515815260200191505060405180910390f35b3480156103d257600080fd5b506103f160048036038101908080359060200190929190505050610b61565b005b3480156103ff57600080fd5b50610408610b6b565b6040518082815260200191505060405180910390f35b34801561042a57600080fd5b5061045f600480360381019080803573ffffffffffffffffffffffffffffffffffffffff169060200190929190505050610b71565b005b34801561046d57600080fd5b5061048c60048036038101908080359060200190929190505050610c28565b604051808060200180602001806020018060200186815260200185810385528a818151815260200191508051906020019080838360005b838110156104de5780820151818401526020810190506104c3565b50505050905090810190601f16801561050b5780820380516001836020036101000a031916815260200191505b50858103845289818151815260200191508051906020019080838360005b83811015610544578082015181840152602081019050610529565b50505050905090810190601f1680156105715780820380516001836020036101000a031916815260200191505b50858103835288818151815260200191508051906020019080838360005b838110156105aa57808201518184015260208101905061058f565b50505050905090810190601f1680156105d75780820380516001836020036101000a031916815260200191505b50858103825287818151815260200191508051906020019080838360005b838110156106105780820151818401526020810190506105f5565b50505050905090810190601f16801561063d5780820380516001836020036101000a031916815260200191505b50995050505050505050505060405180910390f35b34801561065e57600080fd5b506107e560048036038101908080359060200190929190803590602001908201803590602001908080601f0160208091040260200160405190810160405280939291908181526020018383808284378201915050505050509192919290803590602001908201803590602001908080601f0160208091040260200160405190810160405280939291908181526020018383808284378201915050505050509192919290803590602001908201803590602001908080601f0160208091040260200160405190810160405280939291908181526020018383808284378201915050505050509192919290803590602001908201803590602001908080601f016020809104026020016040519081016040528093929190818152602001838380828437820191505050505050919291929080359060200190929190803590602001908201803590602001908080601f0160208091040260200160405190810160405280939291908181526020018383808284378201915050505050509192919290505050610f1d565b005b60016020528060005260406000206000915054906101000a900460ff1681565b6000602052806000526040600020600091509050806000018054600181600116156101000203166002900480601f0160208091040260200160405190810160405280929190818152602001828054600181600116156101000203166002900480156108b35780601f10610888576101008083540402835291602001916108b3565b820191906000526020600020905b81548152906001019060200180831161089657829003601f168201915b505050505090806001018054600181600116156101000203166002900480601f0160208091040260200160405190810160405280929190818152602001828054600181600116156101000203166002900480156109515780601f1061092657610100808354040283529160200191610951565b820191906000526020600020905b81548152906001019060200180831161093457829003601f168201915b505050505090806002018054600181600116156101000203166002900480601f0160208091040260200160405190810160405280929190818152602001828054600181600116156101000203166002900480156109ef5780601f106109c4576101008083540402835291602001916109ef565b820191906000526020600020905b8154815290600101906020018083116109d257829003601f168201915b505050505090806003018054600181600116156101000203166002900480601f016020809104026020016040519081016040528092919081815260200182805460018160011615610100020316600290048015610a8d5780601f10610a6257610100808354040283529160200191610a8d565b820191906000526020600020905b815481529060010190602001808311610a7057829003601f168201915b505050505090806004018054600181600116156101000203166002900480601f016020809104026020016040519081016040528092919081815260200182805460018160011615610100020316600290048015610b2b5780601f10610b0057610100808354040283529160200191610b2b565b820191906000526020600020905b815481529060010190602001808311610b0e57829003601f168201915b5050505050908060050154905086565b60045481565b60026020528060005260406000206000915054906101000a900460ff1681565b8060038190555050565b60035481565b600560009054906101000a900473ffffffffffffffffffffffffffffffffffffffff1673ffffffffffffffffffffffffffffffffffffffff163373ffffffffffffffffffffffffffffffffffffffff16141515610bcd57600080fd5b6001600260008373ffffffffffffffffffffffffffffffffffffffff1673ffffffffffffffffffffffffffffffffffffffff16815260200190815260200160002060006101000a81548160ff02191690831515021790555050565b60608060608060008060008781526020019081526020016000206000016000808881526020019081526020016000206001016000808981526020019081526020016000206002016000808a81526020019081526020016000206003016000808b815260200190815260200160002060050154848054600181600116156101000203166002900480601f016020809104026020016040519081016040528092919081815260200182805460018160011615610100020316600290048015610d2f5780601f10610d0457610100808354040283529160200191610d2f565b820191906000526020600020905b815481529060010190602001808311610d1257829003601f168201915b50505050509450838054600181600116156101000203166002900480601f016020809104026020016040519081016040528092919081815260200182805460018160011615610100020316600290048015610dcb5780601f10610da057610100808354040283529160200191610dcb565b820191906000526020600020905b815481529060010190602001808311610dae57829003601f168201915b50505050509350828054600181600116156101000203166002900480601f016020809104026020016040519081016040528092919081815260200182805460018160011615610100020316600290048015610e675780601f10610e3c57610100808354040283529160200191610e67565b820191906000526020600020905b815481529060010190602001808311610e4a57829003601f168201915b50505050509250818054600181600116156101000203166002900480601f016020809104026020016040519081016040528092919081815260200182805460018160011615610100020316600290048015610f035780601f10610ed857610100808354040283529160200191610f03565b820191906000526020600020905b815481529060010190602001808311610ee657829003601f168201915b505050505091509450945094509450945091939590929450565b600260003373ffffffffffffffffffffffffffffffffffffffff1673ffffffffffffffffffffffffffffffffffffffff16815260200190815260200160002060009054906101000a900460ff1680610fc25750600560009054906101000a900473ffffffffffffffffffffffffffffffffffffffff1673ffffffffffffffffffffffffffffffffffffffff163373ffffffffffffffffffffffffffffffffffffffff16145b1515611036576040517f08c379a000000000000000000000000000000000000000000000000000000000815260040180806020018281038252600c8152602001807f496e76616c69642075736572000000000000000000000000000000000000000081525060200191505060405180910390fd5b60c0604051908101604052808781526020018681526020018581526020018481526020018281526020018381525060008089815260200190815260200160002060008201518160000190805190602001906110929291906113ba565b5060208201518160010190805190602001906110af9291906113ba565b5060408201518160020190805190602001906110cc9291906113ba565b5060608201518160030190805190602001906110e99291906113ba565b5060808201518160040190805190602001906111069291906113ba565b5060a08201518160050155905050600180600089815260200190815260200160002060006101000a81548160ff0219169083151502179055506004600081548092919060010191905055507f6501f35391889666699472dfd0d522f78357a638ee22c4f00d951c057371c3548787878787878760405180888152602001806020018060200180602001806020018781526020018060200186810386528c818151815260200191508051906020019080838360005b838110156111d55780820151818401526020810190506111ba565b50505050905090810190601f1680156112025780820380516001836020036101000a031916815260200191505b5086810385528b818151815260200191508051906020019080838360005b8381101561123b578082015181840152602081019050611220565b50505050905090810190601f1680156112685780820380516001836020036101000a031916815260200191505b5086810384528a818151815260200191508051906020019080838360005b838110156112a1578082015181840152602081019050611286565b50505050905090810190601f1680156112ce5780820380516001836020036101000a031916815260200191505b50868103835289818151815260200191508051906020019080838360005b838110156113075780820151818401526020810190506112ec565b50505050905090810190601f1680156113345780820380516001836020036101000a031916815260200191505b50868103825287818151815260200191508051906020019080838360005b8381101561136d578082015181840152602081019050611352565b50505050905090810190601f16801561139a5780820380516001836020036101000a031916815260200191505b509c5050505050505050505050505060405180910390a150505050505050565b828054600181600116156101000203166002900490600052602060002090601f016020900481019282601f106113fb57805160ff1916838001178555611429565b82800160010185558215611429579182015b8281111561142857825182559160200191906001019061140d565b5b509050611436919061143a565b5090565b61145c91905b80821115611458576000816000905550600101611440565b5090565b905600a165627a7a723058201a79599d65434de1adc3120dab914f42458859fd331fad6943cabc4a56e88f950029",
  "source": "pragma solidity ^0.4.24;\r\n\r\ncontract StudentCert{\r\n    \r\n    struct details{\r\n        string name;\r\n        string course;\r\n        string matric_num;\r\n        string dob;\r\n        string graddate;\r\n        int gpa;\r\n\r\n    }\r\n    \r\n    struct semester{\r\n        int gpa;\r\n        int courseWork;\r\n    }\r\n\r\n    event logAddedStudent (uint ic, string name, string course, string matric_num, string dob, int gpa, string graddate);\r\n    \r\n    mapping(uint => details) public Student;\r\n    mapping (uint => bool) public exist;\r\n    \r\n    //create a array of user that can write \r\n    mapping(address => bool) public UniversityAdmin;\r\n\r\n    //golbal ic number\r\n    uint public ic;\r\n    \r\n    //counter for  number of student\r\n    uint public studentsCount;\r\n    \r\n    //address of owner is only one. User 1.\r\n    address owner ;\r\n\r\n    \r\n    //run skali sahaja\r\n    constructor() public{\r\n        owner = msg.sender;        \r\n    }\r\n    \r\n    function setIC(uint _ic) public{\r\n        ic=_ic;\r\n    }\r\n    function addStudent(\r\n        //list of variable in details\r\n        uint _ic,\r\n        string _name,\r\n        string _course,\r\n        string _matric_num,\r\n        string _dob,\r\n        int _gpa,\r\n        string _graddate) public {\r\n        require(UniversityAdmin[msg.sender] || msg.sender == owner, \"Invalid user\");\r\n        // require(!exist[_ic], \"The user do not exist\");\r\n\r\n        \r\n        Student[_ic] = details(_name,_course,_matric_num, _dob,_graddate, _gpa);\r\n        exist[_ic] = true;\r\n        studentsCount++;\r\n        emit logAddedStudent(_ic, _name, _course, _matric_num, _dob, _gpa, _graddate);\r\n        \r\n    }\r\n    \r\n    function getDetails(uint _ic) public returns (string, string, string, string, int) {\r\n        return (Student[_ic].name, Student[_ic].course, Student[_ic].matric_num,Student[_ic].dob,Student[_ic].gpa );\r\n        \r\n    }\r\n    \r\n    function addUniAddress(address _address) public{\r\n    \trequire(msg.sender == owner);\r\n        UniversityAdmin[_address] = true;\r\n    }\r\n    \r\n    \r\n}\r\n",
  "sourcePath": "C:\\Users\\SAM\\OneDrive\\FSKTM\\Blocklime Blockchain\\StudentCert\\contracts\\StudentCert.sol",
  "compiler": {
    "name": "solc",
    "version": "0.4.24+commit.e67f0147.Emscripten.clang"
  },
  "schemaVersion": "2.0.1",
  "updatedAt": "2018-08-19T03:37:43.416Z"
}