{
  "contractName": "test",
  "abi": [
    {
      "constant": true,
      "inputs": [
        {
          "name": "",
          "type": "uint256"
        }
      ],
      "name": "exist",
      "outputs": [
        {
          "name": "",
          "type": "bool"
        }
      ],
      "payable": false,
      "stateMutability": "view",
      "type": "function"
    },
    {
      "constant": true,
      "inputs": [
        {
          "name": "",
          "type": "uint256"
        }
      ],
      "name": "Student",
      "outputs": [
        {
          "name": "course",
          "type": "string"
        },
        {
          "name": "matric_num",
          "type": "string"
        },
        {
          "name": "dob",
          "type": "string"
        },
        {
          "name": "graddate",
          "type": "string"
        }
      ],
      "payable": false,
      "stateMutability": "view",
      "type": "function"
    },
    {
      "constant": true,
      "inputs": [],
      "name": "studentsCount",
      "outputs": [
        {
          "name": "",
          "type": "uint256"
        }
      ],
      "payable": false,
      "stateMutability": "view",
      "type": "function"
    },
    {
      "constant": true,
      "inputs": [
        {
          "name": "",
          "type": "address"
        }
      ],
      "name": "UniversityAdmin",
      "outputs": [
        {
          "name": "",
          "type": "bool"
        }
      ],
      "payable": false,
      "stateMutability": "view",
      "type": "function"
    },
    {
      "constant": true,
      "inputs": [],
      "name": "ic",
      "outputs": [
        {
          "name": "",
          "type": "uint256"
        }
      ],
      "payable": false,
      "stateMutability": "view",
      "type": "function"
    },
    {
      "inputs": [
        {
          "name": "_owner",
          "type": "address"
        }
      ],
      "payable": false,
      "stateMutability": "nonpayable",
      "type": "constructor"
    },
    {
      "constant": false,
      "inputs": [
        {
          "name": "_course",
          "type": "string"
        },
        {
          "name": "_matric_num",
          "type": "string"
        },
        {
          "name": "_dob",
          "type": "string"
        },
        {
          "name": "_gpa",
          "type": "int256"
        },
        {
          "name": "_graddate",
          "type": "string"
        }
      ],
      "name": "addStudent",
      "outputs": [],
      "payable": false,
      "stateMutability": "nonpayable",
      "type": "function"
    },
    {
      "constant": true,
      "inputs": [],
      "name": "getDetails",
      "outputs": [
        {
          "name": "",
          "type": "string"
        },
        {
          "name": "",
          "type": "string"
        }
      ],
      "payable": false,
      "stateMutability": "view",
      "type": "function"
    },
    {
      "constant": false,
      "inputs": [
        {
          "name": "_address",
          "type": "address"
        }
      ],
      "name": "addUniAddress",
      "outputs": [],
      "payable": false,
      "stateMutability": "nonpayable",
      "type": "function"
    }
  ],
  "bytecode": "0x608060405273a2e9947ede43bf21de7e55d982a6d172791ad912600560006101000a81548173ffffffffffffffffffffffffffffffffffffffff021916908373ffffffffffffffffffffffffffffffffffffffff16021790555034801561006557600080fd5b50604051602080610eb38339810180604052810190808051906020019092919050505080600560006101000a81548173ffffffffffffffffffffffffffffffffffffffff021916908373ffffffffffffffffffffffffffffffffffffffff16021790555050610dda806100d96000396000f30060806040526004361061008e576000357c0100000000000000000000000000000000000000000000000000000000900463ffffffff1680634ebbc92a1461009357806365bbf54f146100d857806368433a3a146102c257806396c3248d146102ed578063a8d9da1214610348578063af841c1114610373578063ec35729d146103b6578063fbbf93a0146104fb575b600080fd5b34801561009f57600080fd5b506100be600480360381019080803590602001909291905050506105f7565b604051808215151515815260200191505060405180910390f35b3480156100e457600080fd5b5061010360048036038101908080359060200190929190505050610617565b6040518080602001806020018060200180602001858103855289818151815260200191508051906020019080838360005b8381101561014f578082015181840152602081019050610134565b50505050905090810190601f16801561017c5780820380516001836020036101000a031916815260200191505b50858103845288818151815260200191508051906020019080838360005b838110156101b557808201518184015260208101905061019a565b50505050905090810190601f1680156101e25780820380516001836020036101000a031916815260200191505b50858103835287818151815260200191508051906020019080838360005b8381101561021b578082015181840152602081019050610200565b50505050905090810190601f1680156102485780820380516001836020036101000a031916815260200191505b50858103825286818151815260200191508051906020019080838360005b83811015610281578082015181840152602081019050610266565b50505050905090810190601f1680156102ae5780820380516001836020036101000a031916815260200191505b509850505050505050505060405180910390f35b3480156102ce57600080fd5b506102d76108a7565b6040518082815260200191505060405180910390f35b3480156102f957600080fd5b5061032e600480360381019080803573ffffffffffffffffffffffffffffffffffffffff1690602001909291905050506108ad565b604051808215151515815260200191505060405180910390f35b34801561035457600080fd5b5061035d6108cd565b6040518082815260200191505060405180910390f35b34801561037f57600080fd5b506103b4600480360381019080803573ffffffffffffffffffffffffffffffffffffffff1690602001909291905050506108d3565b005b3480156103c257600080fd5b506104f9600480360381019080803590602001908201803590602001908080601f0160208091040260200160405190810160405280939291908181526020018383808284378201915050505050509192919290803590602001908201803590602001908080601f0160208091040260200160405190810160405280939291908181526020018383808284378201915050505050509192919290803590602001908201803590602001908080601f016020809104026020016040519081016040528093929190818152602001838380828437820191505050505050919291929080359060200190929190803590602001908201803590602001908080601f016020809104026020016040519081016040528093929190818152602001838380828437820191505050505050919291929050505061098a565b005b34801561050757600080fd5b50610510610b98565b604051808060200180602001838103835285818151815260200191508051906020019080838360005b83811015610554578082015181840152602081019050610539565b50505050905090810190601f1680156105815780820380516001836020036101000a031916815260200191505b50838103825284818151815260200191508051906020019080838360005b838110156105ba57808201518184015260208101905061059f565b50505050905090810190601f1680156105e75780820380516001836020036101000a031916815260200191505b5094505050505060405180910390f35b60016020528060005260406000206000915054906101000a900460ff1681565b6000602052806000526040600020600091509050806000018054600181600116156101000203166002900480601f0160208091040260200160405190810160405280929190818152602001828054600181600116156101000203166002900480156106c35780601f10610698576101008083540402835291602001916106c3565b820191906000526020600020905b8154815290600101906020018083116106a657829003601f168201915b505050505090806001018054600181600116156101000203166002900480601f0160208091040260200160405190810160405280929190818152602001828054600181600116156101000203166002900480156107615780601f1061073657610100808354040283529160200191610761565b820191906000526020600020905b81548152906001019060200180831161074457829003601f168201915b505050505090806002018054600181600116156101000203166002900480601f0160208091040260200160405190810160405280929190818152602001828054600181600116156101000203166002900480156107ff5780601f106107d4576101008083540402835291602001916107ff565b820191906000526020600020905b8154815290600101906020018083116107e257829003601f168201915b505050505090806003018054600181600116156101000203166002900480601f01602080910402602001604051908101604052809291908181526020018280546001816001161561010002031660029004801561089d5780601f106108725761010080835404028352916020019161089d565b820191906000526020600020905b81548152906001019060200180831161088057829003601f168201915b5050505050905084565b60045481565b60026020528060005260406000206000915054906101000a900460ff1681565b60035481565b600560009054906101000a900473ffffffffffffffffffffffffffffffffffffffff1673ffffffffffffffffffffffffffffffffffffffff163373ffffffffffffffffffffffffffffffffffffffff1614151561092f57600080fd5b6001600260008373ffffffffffffffffffffffffffffffffffffffff1673ffffffffffffffffffffffffffffffffffffffff16815260200190815260200160002060006101000a81548160ff02191690831515021790555050565b600260003373ffffffffffffffffffffffffffffffffffffffff1673ffffffffffffffffffffffffffffffffffffffff16815260200190815260200160002060009054906101000a900460ff1680610a2f5750600560009054906101000a900473ffffffffffffffffffffffffffffffffffffffff1673ffffffffffffffffffffffffffffffffffffffff163373ffffffffffffffffffffffffffffffffffffffff16145b1515610aa3576040517f08c379a000000000000000000000000000000000000000000000000000000000815260040180806020018281038252600c8152602001807f496e76616c69642075736572000000000000000000000000000000000000000081525060200191505060405180910390fd5b60016000600354815260200190815260200160002060009054906101000a900460ff16151515610ad257600080fd5b6080604051908101604052808681526020018581526020018481526020018281525060008060035481526020019081526020016000206000820151816000019080519060200190610b24929190610d09565b506020820151816001019080519060200190610b41929190610d09565b506040820151816002019080519060200190610b5e929190610d09565b506060820151816003019080519060200190610b7b929190610d09565b509050506004600081548092919060010191905055505050505050565b60608060008060035481526020019081526020016000206000016000806003548152602001908152602001600020600101818054600181600116156101000203166002900480601f016020809104026020016040519081016040528092919081815260200182805460018160011615610100020316600290048015610c5e5780601f10610c3357610100808354040283529160200191610c5e565b820191906000526020600020905b815481529060010190602001808311610c4157829003601f168201915b50505050509150808054600181600116156101000203166002900480601f016020809104026020016040519081016040528092919081815260200182805460018160011615610100020316600290048015610cfa5780601f10610ccf57610100808354040283529160200191610cfa565b820191906000526020600020905b815481529060010190602001808311610cdd57829003601f168201915b50505050509050915091509091565b828054600181600116156101000203166002900490600052602060002090601f016020900481019282601f10610d4a57805160ff1916838001178555610d78565b82800160010185558215610d78579182015b82811115610d77578251825591602001919060010190610d5c565b5b509050610d859190610d89565b5090565b610dab91905b80821115610da7576000816000905550600101610d8f565b5090565b905600a165627a7a72305820f2112a21eaabf115e126cda51eb2ab5b5ef448e5391a488ef92c2a114e51d1b60029",
  "source": "pragma solidity ^0.4.24;\r\n\r\ncontract test{\r\n    \r\n    struct details{\r\n        string course;\r\n        string matric_num;\r\n        string dob;\r\n        string graddate;\r\n    }\r\n    \r\n    struct semester{\r\n        int gpa;\r\n        int courseWork;\r\n    }\r\n    \r\n    mapping(uint => details) public Student;\r\n    mapping (uint => bool) public exist;\r\n    \r\n    //create a array of user that can write \r\n    mapping(address => bool) public UniversityAdmin;\r\n\r\n    //golbal ic number\r\n    uint public ic;\r\n    \r\n    //counter for  number of student\r\n    uint public studentsCount;\r\n    \r\n    //address of owner is only one.\r\n    address owner = 0xa2e9947ede43Bf21dE7e55d982a6D172791AD912;\r\n\r\n    \r\n    \r\n    constructor(address _owner) public{\r\n        owner = _owner;\r\n    }\r\n    \r\n    function addStudent(\r\n        //list of variable in details\r\n        string _course,\r\n        string _matric_num,\r\n        string _dob,\r\n        int _gpa,\r\n        string _graddate\r\n        \r\n    ) public {\r\n        require(UniversityAdmin[msg.sender] || msg.sender == owner, \"Invalid user\");\r\n        require(!exist[ic]);\r\n        \r\n        Student[ic] = details(_course,_matric_num, _dob,_graddate);\r\n        studentsCount++;\r\n        \r\n    }\r\n    \r\n    function getDetails() view public returns (string, string){\r\n        return (Student[ic].course, Student[ic].matric_num);\r\n    }\r\n    \r\n    function addUniAddress(address _address) public{\r\n    \trequire(msg.sender == owner);\r\n        UniversityAdmin[_address] = true;\r\n    }\r\n    \r\n    \r\n}",
  "sourcePath": "C:\\Users\\SAM\\OneDrive\\FSKTM\\Blocklime Blockchain\\StudentCert\\contracts\\StudentCert.sol",
  "compiler": {
    "name": "solc",
    "version": "0.4.24+commit.e67f0147.Emscripten.clang"
  },
  "schemaVersion": "2.0.1",
  "updatedAt": "2018-08-18T17:00:13.621Z"
}